:020000040C00EE
:100000000008001001020008B1020008F90300080E
:10001000D50A0008FB030008FD03000800000000EB
:10002000000000000000000000000000B102000815
:10003000B102000800000000B1020008B10200088F
:10004000B1020008B1020008B1020008B1020008C4
:10005000B1020008B1020008B1020008B1020008B4
:10006000B1020008000000000000000000000000D5
:10007000B102000800000000B1020008B10200084F
:10008000B1020008B1020008B1020008B102000884
:10009000B1020008B1020008B1020008B102000874
:1000A000B1020008B1020008B1020008B102000864
:1000B000B1020008B1020008B1020008B102000854
:1000C000B1020008B1020008B1020008B102000844
:1000D000B1020008B1020008B1020008B102000834
:1000E000B1020008B1020008B1020008B102000824
:1000F000B1020008B1020008B1020008B102000814
:10010000B1020008B1020008B1020008B102000803
:10011000B1020008B1020008B1020008B1020008F3
:10012000B1020008B1020008B1020008B1020008E3
:10013000B1020008B1020008B1020008B1020008D3
:10014000B1020008B1020008B1020008B1020008C3
:10015000B1020008B1020008B1020008B1020008B3
:10016000000000000000000000000000000000008F
:10017000B1020008B1020008B1020008B102000893
:10018000B1020008B1020008B1020008B102000883
:10019000B1020008B1020008B1020008B102000873
:1001A000B1020008B1020008B1020008B102000863
:1001B000B1020008B1020008B1020008B102000853
:1001C000B1020008B1020008B1020008B102000843
:1001D000B1020008B1020008B102000800000000EE
:1001E000B1020008B1020008B102000801040008D1
:1001F000B102000800000000B10200080000000089
:10020000DFF88CD023488047234C244DAC4209DAD8
:1002100021686268A368043BA2BFC858D050FAE7BF
:100220000C34F3E71E4B1F4CA34208DA19685A68D6
:100230000020043AA4BF8850FBE70833F4E71A48CB
:1002400080471A4880470000D0DF000C00000020E3
:100250009C0E00008CEE000C00000030000000003E
:10026000D0DF000C0008001000000000D0DF000C00
:100270000008001000000000BC0E00206407000011
:1002800000000030000E0000000800100000000018
:1002900000080010A946000848020008780200087B
:1002A0007802000890020008BDA30008B50200080B
:1002B000FEE70000F0B591B0284B1B680F934FF09C
:1002C000000307AC264D0FCD0FC495E80F0084E85E
:1002D0000F0000230493059306930293039300F009
:1002E00097F8204804F078FC04F030FD182700252A
:1002F00014E038460AF086F8069000240AF0A2FCC2
:10030000069B18550134182CF8D10FE004980AF018
:1003100081F8049502980AF07DF8029504A800F08F
:10032000F6F90028FAD1069B002BE2D0059C04F1D7
:10033000100630460AF066F80290039607AB019368
:10034000069B009322462B46049904F036FB0028B6
:10035000DCD102A800F0EAF9D8E700BFA4D8000871
:10036000A8D8000868040020F0B589B000250495DD
:10037000059550238DF80C3002278DF80D7004265A
:100380008DF80E6001248DF80F408DF812404FF467
:10039000803306938DF81C408DF81D408DF81E406B
:1003A0008DF81F4003A803F02DFB03F023F8402134
:1003B000384603F033F8304602F0B4FF284602F026
:1003C00033FF204602F0DAFF04F058F8084A6B4683
:1003D00007CA83E8070000F038FB204600F011FB55
:1003E000044A136843F44003136009B0F0BD00BF32
:1003F000C8D8000818820248FEE7FEE7FEE70000C2
:1004000008B5024801F002FE08BD00BF0000002050
:1004100008B5164800F0EEFF154BDA68C2F3022269
:10042000C2F10701062928BF0621931D062B8CBFA8
:1004300002F1FF3200224FF0FF338B40DB43934049
:100440009B00DBB20B4A82F86B334FF40063C2F8B7
:100450008C31D360054B4FF416529A62082283F810
:100460002E20054B1B68DB68984708BD0000002064
:1004700000ED00E000E100E044120020704770470A
:1004800008B5084B93F83E3113F0010F00D108BDB9
:10049000FFF7BEFF034B93F83E216FF3000283F892
:1004A0003E21F4E74412002008B540220C49812087
:1004B00000F0EAFF40220B49822000F0E5FF4022D5
:1004C0000949032000F0E0FF084802F02DF8084A2F
:1004D00092F83E3143F0010382F83E3108BD00BF7F
:1004E000C40F002004100020840F00201000002002
:1004F0004412002008B5024802F0DCF908BD00BF34
:10050000100000207047704770470000030A022B5C
:1005100016D0032B08D0012B03D000200346136014
:10052000704712200B4BFAE7C0B201280BD002280B
:100530000CD010B100200346F1E70420064BEEE793
:100540003E20064BEBE75820054BE8E72020054B03
:10055000E5E700BFD4D80008A8D90008E8D800080B
:100560004CD9000828D9000810B5064C204602F0E6
:10057000D3F818B9204602F0A7F8F7E7014802F0CF
:1005800005F910BD100000202DE9F04192B007469A
:10059000374B1B6811934FF000030024089420226E
:1005A000214609A80AF0F2FA0194029403940494F3
:1005B00005940694CDF81B401B23009308AD11AEA3
:1005C000B54211D0FFF7D0FF0446FF28F8DC02281F
:1005D00044D05FFA80F8404600F088F908B93D2C15
:1005E0003ED105F8018BEBE7FFF7BEFF022808D0EC
:1005F00002201F4B1A68119B5A4037D112B0BDE838
:10060000F0816B4601AA242108A800F079F948B3CB
:10061000009B1B2B01D00220EBE79DF806209DF8E4
:1006200005301B0243EA02439DF8042013437B601C
:10063000182009F0E7FE0446B860A8B1DDF807000D
:10064000DDF80B10DDF80F20DDF813300FC4DDF8F6
:100650001700DDF81B1003C40020CAE70220C8E71A
:100660000120C6E70320C4E70420C2E700F03EFAF9
:10067000B0D900082DE9F04782B00546D0F80480D3
:10068000002400940121404609F036FE019410B385
:10069000074600F1FF3926466B68B34227D9FFF7BA
:1006A00063FF0446FF28F7DC03282CD05FFA80FAAA
:1006B000504600F01BF908B93D2C26D1013609F847
:1006C00001AFE9E7009B6B60019B13B12B60002435
:1006D00012E0052410E0052411E06B4601AA414612
:1006E000384600F067F90028ECD1072404E0FFF752
:1006F0003BFF0328F1D00624384609F08BFE204644
:1007000002B0BDE8F0870624F6E70124F4E710B54F
:100710000446FFF729FF0128FBD12046FFF734FFED
:1007200000B110BD2046FFF7A5FFFAE730B583B052
:1007300004460023019301AA4168006800F0B2F862
:100740000546019B83B10D4C0221204601F054FF68
:10075000AAB20199204601F02DFF0321204601F0A5
:100760004BFF002003B030BD636823B1002814BFE5
:1007700008200920F6E70820F4E700BF1000002059
:10078000F0B5A3B0074616461C46289D134B1B68C0
:1007900021934FF0000301A80AF0F6F8237803F044
:1007A0000703ED5C0DF103030DF1830413F8011F42
:1007B00069401970A342F9D1304609F023FE386030
:1007C000324601A90AF0E0F8044B1A68219B5A400E
:1007D00002D1002023B0F0BD00F088F9B4D90008A0
:1007E00070470000002944D0F0B50F46002B4CD0D4
:1007F00001788C082A4D2C5D1470012B45D02C46B5
:100800003D2600250AE010F8031F4FEA910C14F86A
:100810000CC082F800C0052B37D073460901012FA8
:1008200034D090F801C001EB1C1101F03F01615C74
:100830005170022B29D061468900023F1ABF90F8FF
:1008400002C04FEA9C1CAC46614401F03F01615C70
:100850009170032B19D087B10432817801F03F01E8
:10086000615C02F8011CB3F1040E0ED0013FCAD145
:1008700009E00BB100231370704704323D2102F8E8
:10088000011C042B01D000231370F0BD01F03F01C7
:10089000615C5170022BF8D031462F46D8E700BF7B
:1008A000B8D900082DE9F04116468C1C0E4BA3FB6D
:1008B00004346408A40004F10108414504D900246B
:1008C00014602046BDE8F08107460D46404609F019
:1008D00099FD0246306028B1434629463846FFF765
:1008E00081FFEEE74446ECE7ABAAAAAA034B034418
:1008F00093F84000C043C0F3C0107047B8D9000857
:10090000F0B5D3F800C001294FD96446284E13E052
:10091000042903D1C2783D2A00D10439ACEB040488
:100920001C60B1FA81F04009F0BD0429F5D0F5E76B
:10093000043004390129F1D90578354495F940E0AE
:10094000BEF1000FEADB4578354495F94070002F81
:10095000E4DB2CB13D1145EA8E0E02F801EB013CBF
:100960000229DBD085783D2DD2D0354495F940E081
:10097000BEF1000FD2DB34B14FEAAE0545EA0717EE
:1009800002F8017B013C0329C8D0C5783D2DCCD0AD
:10099000354495F94050002DC0DB002CC8D045EA05
:1009A0008E1E02F801EB013CC2E76446B6E700BFC9
:1009B000B8D900082DE9F04182B080460D461646B0
:1009C0001F468C0804EB4404A01C019009F01AFD9A
:1009D0003060A0B1024601AB29464046FFF790FFC8
:1009E000044630B10FB1019B3B60204602B0BDE828
:1009F000F081306809F00EFD00233360F5E7012433
:100A0000F3E7BFF34F8FBFF36F8F4FF0E023D3F8BF
:100A1000943D002814BF0522012213434FF0E02229
:100A2000C2F8943DBFF34F8FBFF36F8F7047BFF392
:100A30004F8FBFF36F8F4FF0E0230022C3F8942D48
:100A4000BFF34F8FBFF36F8F704770B485B004ABA7
:100A500003E90700019A029B9DF80C100E46092934
:100A600038BF0926B2F1805F08D3B2F1804F2DD391
:100A7000B2F1C04F34BF0524072400E002249DF8E2
:100A80000D5005F007054FF0E020C0F8985DD0F854
:100A9000A05D25F00105C0F8A05DF240B240C0F8AD
:100AA0009C2D180600F0B850220489B10139490084
:100AB00001F03E01C3F3C013034313430B434FF054
:100AC000E022C2F8A03D05B070BC70470624D6E70E
:100AD0000021EFE74FF0E023D3F8283D13F0800F1B
:100AE0001CBF4FF0E023D3F8343DFEE7BFF34F8F38
:100AF0000549CA6802F4E062044B1343CB60BFF3BC
:100B00004F8F00BFFDE700BF00ED00E00400FA05D5
:100B100010B4084C04F10F0301382F3413F8012FDF
:100B200010F8011F4A401A70A342F7D15DF8044B38
:100B3000704700BF3000002000487047FCDA000812
:100B400030B5B7B02C4B1B6835934FF0000305ACA4
:100B50002A4D0FCD0FC495E80F0084E80F00284CF4
:100B60004FF48062002104F130000AF00FF80023F6
:100B70002360A368D3B12021039105AB02938022A7
:100B80000023CDE9002315AA1E4803F0D4FD70BB55
:100B90000DA8FFF7BDFFA0210DA804F06AF9164BC0
:100BA0001A68359B5A4024D137B030BD0DAC039341
:100BB00002934FF480320023CDE900234FF080529E
:100BC0002021204603F0B7FD0F4B94E8030083E893
:100BD0000300D3E90023134303D0094B01229A6099
:100BE000C9E70A4B0A4A51210A4809F061FB09F09A
:100BF00057FBFFF77BFF00BF78DB000848DB0008EE
:100C000030000020400000206004002008DB0008C5
:100C10007CDB000828DB000810B584B00446039193
:100C2000224B9B68002B38D0204B03F1100201921D
:100C300003F586630093039A0023204603F090FF98
:100C400070BB1A48037C9DF80C2053400374437C0E
:100C50009DF80D2053404374837C9DF80E20534033
:100C60008374C37C9DF80F205340C37400F58663E2
:100C7000D0F83024D0F83414013241F10001C0F82A
:100C80003024C0F834141030019000932022002347
:100C9000014603F079FF04B010BDFFF751FFC3E731
:100CA000034B044A9D21044809F002FB3000002058
:100CB0006CDB0008A0DB000828DB000810B582B060
:100CC0001C4B1B681BBB1B4B9B6853B3194800F1A3
:100CD0001003019300F5866300934FF480620023B4
:100CE000303003F03DFFF8B9124C4FF478732360B5
:100CF00004F58260FFF70CFFD4F83024D4F83414E4
:100D0000013241F10001C4F83024C4F83414094A16
:100D10001368191F11602C33D0580021D15002B034
:100D200010BDFFF70DFFD1E7034B044AB62104487D
:100D300009F0BEFA300000206CDB0008C4DB0008BC
:100D400028DB000810B5074C23685B6A012180206E
:100D50009847012384F83B3123689B6A18210020BF
:100D6000984710BD4412002030B583B00023ADF881
:100D70000230A24B5C88FFF7BDFBA14B93F83E31DC
:100D800013F0020F58D0E4B29C4B5B780C2B00F2AE
:100D90007681DFE813F089000D0074011A017401F7
:100DA000DB00530001014200EA0070000401710100
:100DB000924B1B7803F00303022B08D053BB904BDC
:100DC00093F83E216FF3820283F83E212DE08B4B96
:100DD00098888C4B1B78DBB2042B00D048B900F00C
:100DE0000F0287492C2303FB02131B7A13F0010F18
:100DF00002D1FFF7A7FF18E00B462C2101FB0232BE
:100E0000117A6FF3820111721B685B6A0021C0B214
:100E100098470AE0FFF796FF07E07B49A1F23913F4
:100E20001B681B6B012200209847754A92F83E31DF
:100E30006FF3410382F83E3103B030BD6F4B9988A8
:100E400001AAC9B25888FFF761FB88B16B4AD48800
:100E5000844228BF04466A4D2B681B6B22460199C9
:100E600000209847241AAC62019B1844E862DCE732
:100E7000FFF768FFD9E7634B1B78DBB2042B07D081
:100E8000604B1B78DBB2032BCFD1FFF75BFFCCE7C6
:100E90005A4B9B8803F59C7359490A68146B0122CD
:100EA00019440020A047C0E7544B1B7813F00303FC
:100EB00012D1534A92F83E31C3F38001C3F3C00309
:100EC00043EA4103ADF8023013681B6B02220DEBBD
:100ED000020100209847A8E7012B24D0022B27D13C
:100EE000464B9B88474A1278D2B2042A00D0FBB9FD
:100EF00003F00F0342492C2202FB0312127A12F074
:100F0000010F15D00A462C2101FB03231B7AC3F3E2
:100F10008003ADF8023013681B6B02220DEB020157
:100F20000020984781E7374B1B78DBB2042B02D0B7
:100F3000FFF708FF79E70020ADF80200304B1B688F
:100F40001B6B02220DEB020198476EE74CB92D4B4B
:100F500002221A702A4B1B689B6900212046984781
:100F600063E7284B03221A70F4E7254B83F83941D5
:100F7000FFF79AFA1CB9234B03221A7055E7204B4E
:100F800093F83E3113F0010F03D01E4B04221A7068
:100F90004BE7FFF7D7FE48E7FFF7D4FE45E7194BCD
:100FA0001B78DBB2042B08D0164B1B78DBB2032B6B
:100FB0007FF43BAFFFF7C6FE37E7104A9188104B2E
:100FC0000B44528883F838212FE7022C13D00D4BA5
:100FD0001B78DBB2042B19D00A4B1B78DBB2032B36
:100FE00006D12CB9054B1B7803F00303022B36D036
:100FF000FFF7A8FE19E7FFF7A5FE16E794150020F6
:1010000044120020911500207D13002054B1012CC2
:101010007FF40BAF1B4A92F83E3143F0040382F891
:101020003E3102E7184B988800F00F0315492C2237
:1010300002FB0312127A12F0010F0DD011492C227B
:1010400002FB03131A7A42F004021A720B685B6AFD
:101050000121C0B29847E8E6FFF774FEE5E60A4BC7
:101060009B88DBB2002BC3D1064A137A43F00403FA
:101070001372FFF767FED8E6FFF764FED5E6FFF7C9
:1010800061FED2E6441200209415002010B50D4BED
:1010900093F83B31022B0BD0032B12D1094C236860
:1010A0009B6A182120799847012384F83B3108E096
:1010B000044C23689B6A002108469847052384F85E
:1010C0003B3110BD4412002010B50F4B93F83B315B
:1010D000042B02D0052B0DD010BDFFF745FE0A4CA6
:1010E00023681B6B0022114610469847032384F89F
:1010F0003B31F1E7044C23689B6A1821207998471B
:10110000012384F83B31E7E74412002010B5194C65
:101110002368DB6A082218490020984794F83E317A
:1011200043F0020384F83E3108280FD1124BD988CE
:1011300069B1114B93F90030002B14DB0D4B0422E5
:1011400083F83B211B689B6A0020984710BD03234E
:1011500084F83B31FFF708FE23681B6B0022114621
:1011600010469847F2E7034B022283F83B21FFF732
:10117000FBFDEBE74412002094150020F8B5092888
:1011800046D8DFE800F05A52494C0545877F45466E
:10119000454B02221A70454B012283F83B2193F8FC
:1011A0003E216FF3820283F83E2100241D462C2647
:1011B00000E0013406FB04531A896FF304121A810C
:1011C0001A896FF3C3021A811A7A6FF382021A72B4
:1011D000002CEED0D3B213F0010F0BD006FB045756
:1011E0002B681B6A387998473B7A03F0FE036FF34C
:1011F00041033B72631C062BDBDD2C4B002283F882
:10120000392183F838211A68926A18211879904791
:10121000F8BDFFF777F9FBE7FFF730F9F8E7224B66
:1012200001221A70FFF72BF9F2E700201E4B18700D
:101230001E4B1B681B6A9847EAE701251A4B1D7075
:101240001A4C4FF4A0720021204609F09FFC184B65
:10125000236084F83B51174A22624FF48072626225
:1012600015496161A2614FF00002227103222272CE
:101270002189402262F38C112181DB69002108461B
:101280009847C5E7094B93F83A21074B1A70FFF7C7
:101290003AF9BDE7044B1978044A82F83A1105225D
:1012A0001A70FFF731F9B3E79115002044120020BE
:1012B000ECDB00084410002044110020F8B500F0D9
:1012C0000F044A4B93F83C6193F83D5183F83C413D
:1012D00020F07F0083F83D01012915D0022939D083
:1012E00029B1424B83F83C6183F83D51F8BD1A4661
:1012F0002C2303FB04231A896FF3C3021A81002CE9
:10130000EFD1FFF703FFECE7384A2C2303FB04235C
:101310001A8942F020021A81DB6863B9334B2C270B
:1013200007FB043700223A611B68DB6ABA697969F6
:1013300038799847F8602D4A2C2303FB042423892D
:101340006FF3C303238192F83C31002BC9D1FFF71F
:10135000BBFEC6E7254A2C2303FB04239A6A002A16
:1013600033D1224A2C2303FB0423187910F00F0FEA
:101370001AD12C2303FB0423DB69ABB11C4AD288AE
:10138000934211D019492C2202FB04121289C2F394
:101390008612B3FBF2F102FB11332BB9134B1B681E
:1013A0001B6B002211469847104B2C2202FB043481
:1013B0000021E161228961F30412228193F83C311A
:1013C000002B8ED1FFF762FE8BE7084B2C2101FB2F
:1013D00004341B681B6BE16A20799847A36A1B1AC7
:1013E000A362E36A1844E06280E700BF4412002071
:1013F0009415002038B50546184C4FF4A072002112
:10140000204609F0C3FB0021154B1970154B2360D2
:10141000012284F83B21144A22624FF480726262F6
:1014200012486061A2614FF0000261F3C71222719D
:10143000032222722289402161F38C1222815B688F
:101440002846984738B92368DB69402200210846BE
:101450009847002038BD4FF0FF30FBE744120020D2
:1014600091150020ECDB00084410002044110020FE
:1014700008B5044B1B68DB6B9847003818BF012088
:1014800008BD00BF4412002010B400F00F0310F09C
:10149000800F06484FF02C0404FB030319BF1962A8
:1014A0005A6259619A615DF8044B704744120020FA
:1014B000264B03EB8003D3F8C4311B6813F4004FB1
:1014C00000D17047214A342303FB00235B6A002BC1
:1014D000F7D0F0B5D2F8E0615FEA910E0BD04FEA99
:1014E0008E070023342505FB002534686A6AD45032
:1014F00004339F42F9D121F0030311F0030F19D0F7
:101500003568994216D94FEA8E04C3EB8E0606EB76
:10151000010C00220D4B342707FB00374FF0FF0E64
:101520000EFA02F32B40D3407E6A33550832013461
:101530006445F5D1054B342202FB0030C36A0B44ED
:10154000C362436A19444162F0BD00BF88130020A2
:1015500082B000230193019B43F020030193019B80
:1015600060F38A1301930C4BD3F8A031019A1A61EE
:101570004FF47A73013BFDD1074BD3F8A0211369D7
:101580000193019B13F0200FF9D140F2E933013BA5
:10159000FDD102B0704700BF8813002082B0002345
:1015A0000193019B43F0100301930B4BD3F8A0214F
:1015B00001991161D3F8A0214FF47A73013BFDD159
:1015C00013690193019B13F0100FF5D140F2E93339
:1015D000013BFDD102B070478813002030B40021D8
:1015E000046B836A8268C2F31202E51A95428CBFCB
:1015F0009B1823468362027812F00F0F2AD1012331
:1016000063F3D44141F0C04164F306011C4B1B68F5
:101610005B7B4BB9037803F00F021A4B03EB820399
:10162000D3F8C431426A5A61164A037803F00F03B3
:1016300002EB8303D3F8C4311961037803F00F037D
:1016400002EB8302D2F8C421136843F00443136011
:1016500030BC70472BB96FF31201012363F3DC41F7
:10166000D4E7C26A9B1A4268C2F3C624621E1A44B7
:10167000B2FBF4F262F3DC4163F31201C6E700BF90
:101680008413002088130020F0B40025027802F0B3
:101690000F0202F16A012E4B53F821301C68036BD4
:1016A000866A8168C1F312019F1B8F4228BF73189D
:1016B0008362BBB96FF31205012363F3DC45244A4F
:1016C000037803F00F036A3352F823301D6144F0AE
:1016D0000444037803F00F036A3352F823301C608C
:1016E000F0BC7047017811F00F0F1FD1012161F399
:1016F000DC45C16A5B1A63F31205164B1B68597B04
:1017000029B96A32124951F82220416A51615B7B42
:10171000012BD4D10E4BD3F8A4114E6B037803F0F8
:101720000F020123934033434B63C8E7C66A991BFA
:1017300061F312054168C1F3C6219B1B4E1EB6B270
:1017400016FA83F393FBF1F363F3DC45D5E700BFAF
:10175000881300208413002040F2DF10704700003F
:10176000044BD3F8A42153686FF341035360002066
:10177000704700BF88130020044BD3F8A42153689E
:1017800043F0020353600020704700BF881300201D
:1017900000F00F00134A342303FB00235B6813F0AF
:1017A000100F1CD1342303FB00231B7913F0040F0B
:1017B00001D10120704770B5342606FB00235A6919
:1017C000914228BF114619630024DC629C62DA68EA
:1017D0005A621C611846FFF701FF204670BD0120C8
:1017E000704700BF88130020044BD3F8A4311A6857
:1017F00011B960F30A121A600020704788130020A4
:1018000000F00F0251B310F0800F18D12A4B342191
:1018100001FB02F1595C01F00F0103EB8103D3F8E6
:10182000C4110B6843F400130B602349342303FBFA
:101830000212137943F020031371002070471E49F0
:10184000342303FB02F3CB5C03F00F036A3351F83C
:1018500023100B6843F400130B60E6E710F0800FD1
:1018600019D1154B342101FB02F1595C01F00F0134
:1018700003EB8103D3F8C4110B6823F4001343F086
:1018800080530B600C4B342101FB023213796FF350
:1018900045131371D1E70849342303FB02F3CB5CF2
:1018A00003F00F036A3351F823100B6823F400137D
:1018B00043F080530B60E5E78813002000F00F0031
:1018C000342303FB00F3114AD356002B16DB0F4AD7
:1018D000342303FB00235A686FF304125A600B4A47
:1018E000342303FB00231A796FF345121A71002089
:1018F000186198619862D86218637047342303FBBB
:1019000000235A686FF3C3025A60E8E78813002087
:10191000F0B500F00F00424CD4F8A431DB6934225A
:1019200002FB0042127912F0040F76D000211F460C
:10193000A646342505FB00F56219645D04F00F042A
:101940004FF0010C0CFA04FC6FF3CF3141F09041E1
:101950006FF35551167906F0FB066FF345161671B5
:1019600056686FF30416566056686FF3C3065660E8
:101970001EF90520002A06DB342202FB00E2127960
:1019800012F0030F15D1264D6A3455F8242011604A
:1019900023EA0C0262F30F07342202FB00F2AA567C
:1019A000002A06DA342202FB0052127912F0030FE9
:1019B00016D11B4A342404FB00F4145D04F00F0418
:1019C00002EB8402D2F8C4211160C3F30F4323EA6F
:1019D0000C0363F31F47134B1B685B7B012B14D075
:1019E0000F4BD3F8A421D761342202FB0030818849
:1019F000C1F38311012202FA01F1B3F8FC2122EABA
:101A00000102A3F8FC210020F0BD054BD3F8A4216E
:101A1000536B23EA0C035363E2E70120F4E700BFB2
:101A20008813002084130020034BD3F8A431986856
:101A3000C0F30D20704700BF88130020044B93F8BB
:101A4000FE0100F00500052814BF002001207047AA
:101A50008813002008B50748D0F8A421536843F044
:101A6000020353604FF40272002109F08FF8002046
:101A700008BD00BF881300202DE9F04F83B0054654
:101A80000F461446DFF87492D9F8A431DB6901934C
:101A90009A4600F00F08342202FB08FB0BEB090604
:101AA0000021304609F072F80BF80950337943F001
:101AB00004033371736864F3D1237360002D00F065
:101AC000E1803146B6684FF6C07C6CF312068E603A
:101AD00019F80B3003F00F03864A02EB0320C861AC
:101AE00002F5E06202EB0322CA60834A52F8230047
:101AF000086202EB8302D2694A6115F0800F00F0A0
:101B0000DF806A337D4A52F823502A6842F400424B
:101B100067F39342002F00F0A68064F30A0242F0BC
:101B200080526FF35552754BB3F8FC0110F0010F62
:101B30001AD001230221084218D0490089B201338A
:101B4000DBB2072BF7D1084210D0002312E0402C63
:101B5000E5D16FF30A02E2E7012363F30A02DEE74D
:101B6000032363F30A02DAE70023012101436348F8
:101B7000A0F8FC1103F00F036048342101FB08F1C9
:101B80004618B6F804C063F3891CA6F804C063F3D2
:101B900099522A60425C02F00F0201239340019D9A
:101BA0002B4363F30F0A4356002B29DB534B03EB04
:101BB0008202D2F8C421136843F4004367F39343CD
:101BC00087B364F30A0343F080536FF355531360F4
:101BD000342303FB08F8494B13F8083003F00F02D5
:101BE00001239340019A43EA124363F31F4A434B94
:101BF000D3F8A431C3F81CA0002003B0BDE8F08FD7
:101C0000002FF4D13D4B342202FB08F29A5C02F023
:101C10000F0203EB8203D3F8C421136843F400439B
:101C20006FF39343202C0DD007D8082C0ED0102C26
:101C3000C9D1022161F30A03C5E7402CC3D16FF378
:101C40000A03C0E7012161F30A03BCE7032161F342
:101C50000A03B8E76A33294A52F823502A6842F443
:101C600000426FF39342202C3FF476AF3FF66FAF04
:101C7000082C3FF475AF102C7FF451AF022363F3AF
:101C80000A024CE71D4A342303FB08F3D1188D6880
:101C9000402666F312058D60D35C03F00F03154AEE
:101CA00002EB0320C86102F5E06202EB0322CA6086
:101CB000114A52F82300086202EB8302D2694A619A
:101CC000002FC7D0342303FB08F30C4AD356002B54
:101CD0008DDB0A4B342202FB08F29A5C02F00F0201
:101CE00003EB8203D3F8C421136843F4004367F382
:101CF000934366E700000030BC0E002088130020EC
:101D000070B5054608460D4B342404FB05342369A1
:101D10009A4228BF1A461646E168A369194408F09A
:101D200033FE23699B1B23610BB1A3693344034832
:101D3000342202FB0505AB61304670BD88130020DC
:101D40002DE9F04100F00F041748342303FB04038E
:101D50001B7913F0040F23D0342303FB04035B68C7
:101D600013F0080F01D000201BE04FF0340808FBEF
:101D700004052E6A964228BF16463246E86908F0E6
:101D800003FEEB696B622E630023AB62EB626B6850
:101D900043F008036B602846FFF776FC286B00E0F1
:101DA0000120BDE8F08100BF8813002030B4057B1E
:101DB000BDB1002318460C4C342104E0012001334E
:101DC000DAB2AA420ED201FB0342526812F0080FA7
:101DD000F4D101FB0342526812F0100F18BF01202A
:101DE000EDE7284630BC70478813002070B500240A
:101DF0000A4E96F8FE5105F00105FFF7D7FF96F859
:101E0000FE31C3F3800363F3000465F3410460F320
:101E10008204012363F3C404204670BD88130020AC
:101E200008B5034801F002F901F040FB08BD00BF0E
:101E30008000002038B50446FFF7F2FF3F4B1C60DE
:101E40003F4800F11803011F3430402243F8042FAB
:101E500041F8042F8342F9D13A4D4FF40272002128
:101E6000284608F093FE6368C5F80032A368C5F8F9
:101E700004322068C5F8A00100F50063C5F8A4315C
:101E800000F5106205F5D47305F5E27143F8042BF3
:101E900020328B42FAD100F530622B4B05F5F07100
:101EA00043F8042B20328B42FAD100F58052274BA5
:101EB00005F5FE7543F8042B02F58052AB42F9D1CB
:101EC000826842F08102637BB3FA83F35B0963F3B8
:101ED000451282601B4DD5F8A021D36843F08043A2
:101EE00043F48073D360D5F8A421136843F003034F
:101EF0006FF3D7531360D5F8A421536843F002035E
:101F000053601020FFF724FBFFF748FBD5F8A03102
:101F100000229A61D5F8A0314FF0FF325A610C4B84
:101F2000627B012A08BF43F0100343F44023054AB3
:101F3000D2F8A0219361002038BD00BF8413002097
:101F4000BC0E0020881300204C15002068150020CE
:101F50000E3C00C008B5034801F05CF801F0AEFA91
:101F600008BD00BF8000002000230D280AD8DFE84C
:101F700000F0070909090E091114171A1C1F09227C
:101F80004FF080430D4AD2F8A021536170474FF4BF
:101F90008053F7E74FF40063F4E74FF00043F1E7B5
:101FA0004FF00043EEE70823ECE74FF48063E9E7E6
:101FB0004FF40053E6E74FF40023E3E788130020D3
:101FC0006A31024B53F82130986070478813002023
:101FD000034B03EB8103D3F8C4319860704700BF13
:101FE00088130020034BD3F8A421536903435361A2
:101FF000704700BF88130020034BD3F8A421136956
:1020000003431361704700BF881300202DE9F04F90
:1020100085B08346C24BD3F8A0319D695C692C40E2
:10202000E3B2019314F0080F07D0BD4BD3F8003290
:10203000092098470920FFF797FF9BF80D30012BE7
:102040003CD0C4F3072514F4806F5FD115F0080F5E
:1020500007D0B34BD3F80032062098470620FFF78D
:1020600083FF260E002C55DB16F0400F0DD0AC4B35
:1020700093F8FE2142F0040283F8FE21D3F80032E7
:10208000002098470020FFF76FFF15F0100F4AD18E
:1020900015F0200F40F0BA80C4F3074914F4802FE4
:1020A00040F0D08019F0080F40F08C81019B13F0B4
:1020B000040F40F01B8205B0BDE8F08F019B13F0C8
:1020C000100FBED06FF30415954BD3F8A021956186
:1020D000D3F8A031186AC0F34343022B08D0062B73
:1020E0000DD045F010058E4BD3F8A0319D61A8E7C7
:1020F000C0F30A1100F00F00FFF7DAF9F1E7C0F3BF
:102100000A1100F00F00FFF7D3F9EAE70A20FFF702
:102110002BFF9BE7824BD3F800320820984708201A
:10212000FFF722FFA0E77E48D0F8A421536843F0D0
:102130000103536000F5E27200F5F07052F8041BE1
:102140000B6843F000636FF355530B608242F5D187
:10215000734ED6F8A03140225A621020002360F35B
:102160001F4362F30F03D6F8A0219362D6F8A03183
:102170006C4AC3F80421D6F8A0311032C3F8082104
:10218000D6F8A0311032C3F80C21D6F8A0311032A5
:10219000C3F81021D6F8A0311032C3F81421D6F8B4
:1021A000A0311032C3F81821FFF7D2F90020FFF751
:1021B000CFF9FFF7F3F9D6F8A4314FF00112DA6145
:1021C0000F20FFF70FFF0F20FFF716FFD6F8A4210F
:1021D00013686FF30A1313609BF80D30012B10D0B6
:1021E0004F4B5A686FF304125A605A686FF3C30278
:1021F0005A60D3F80032042098470420FFF7B4FE59
:1022000046E7D6F8A43100225A63E9E7444DD5F8F1
:10221000A82113686FF30A03136095F8FE3143F0A9
:10222000050385F8FE31D5F8003202209847D5F82D
:10223000A021D368092161F38D23D3600B20FFF720
:1022400093FE29E7364BD3F8A4319A6919691FFA2E
:1022500082FABAF1000F00F0B18053460022154611
:10226000029216462E4F4FF03408CDF80C90894656
:1022700029E0012940F0518114F0800F54D114F06D
:10228000010F16D008FB05731A6B9B6A9A4240F047
:102290008E8008FB05735A686FF3C3025A609BF87F
:1022A0000D30012B7AD0D7F80432022146F080009D
:1022B00098476A3557F825309C600136F6B23546A6
:1022C0005AFA06F378D013F0010FF6D005F16A033D
:1022D00057F823209168D7F8A4315C6B08FB05F30D
:1022E000FB5C03F00F03DC40E401E4B244EA0904C0
:1022F0000C409BF80D100029BBD11369029314F018
:10230000010FD6D0029B33F06043BBD108FB0573AD
:10231000986ADA6A811AD8625A6A0A445A62B1E73C
:10232000881300205000100003F16A0257F82220A1
:10233000D2F818C008FB0572916AD26AB1EB020E9E
:102340001BD00EF1030290081FFA8CFCBCEB920F1D
:102350003CBF4FEA8C0E604678B1783357F823C003
:10236000002108FB0572536A1B68CCF8003001316C
:10237000536A043353628142F5D108FB0573DA6A6C
:102380007244DA625A6A72445A6214F0010F90D0B1
:102390009BF80D30002B7FF475AFB3E7D7F8A4118D
:1023A0004B6B0122AA4023EA02034B637BE708FB45
:1023B0000570FFF769F97CE7DDF80C900E20FFF758
:1023C000D3FD6FE6574BD3F8A4219169D3695269C5
:1023D000039200220292C3F30F4818EA114800F05A
:1023E00081804346154614464E4E4FF0340924E092
:1023F00009FB04631A69D96A0A441A6147E009FBB8
:1024000004631A6B9B6A9A4267D109FB0463DA6A18
:102410001A615A686FF304125A60D6F80432012127
:102420002846984706EB8404D4F8C4319F600135F0
:10243000EDB22C4658FA05F354D013F0010FF6D044
:1024400006EB8403D3F8C4319F68039A17409BF8C6
:102450000D200AB91B6902935FFA87FA17F0080F7B
:1024600026D009FB04631A796FF345121A719BF8A1
:102470000D3043B909FB0462029BC3F34173C3F1FE
:102480000303DB0013619BF80D30012BB0D009FB77
:1024900004635A686FF304125A60D6F804320021BC
:1024A0000846984706EB8403D3F8C43108229A60A3
:1024B0001AF0010FB6D09BF80D30002B9FD109FB0D
:1024C0000463029AC2F31202996A8A1AD96A511AEB
:1024D000DA625A6A0A445A6291E709FB0460FFF71C
:1024E0007DF89FE70D20FFF73FFDDFE50D4BD3F8AB
:1024F000A0315C6814F0040F0AD00A4B93F8FE2157
:102500006FF3820283F8FE21D3F80032012098474E
:10251000044BD3F8A0315C60CDE514F0010F7FF4DB
:10252000B1AEC6E68813002010B50446002343610F
:102530008361C361022383710373032383740121C5
:10254000023000F0D3FB034608B9184610BD012144
:1025500004F1080000F0CAFB03460028F5D0012171
:1025600004F10E0000F0C2FB0346EEE70F4B1B78B0
:10257000DBB2042B16D110B50C468369A3B1837866
:102580000B4A03F00F0182F83C1123F07F0382F81D
:102590003D31204608F054FC002281B2204601F073
:1025A000C3FA10BD022070470220FAE791150020FF
:1025B0004412002010B50346084611460C4A147810
:1025C000E4B2042C0FD19A697AB19B78094A03F0DE
:1025D0000F0482F83C4123F07F0382F83D31002252
:1025E00001F0A2FA10BD0220FCE70220FAE700BFCA
:1025F0009115002044120020114B1B78DBB2042BF4
:102600001AD110B50C468369C3B183780D4A03F023
:102610000F0182F83C1123F07F0382F83D3100F076
:10262000E1FA20B900F082FA00F002FA18B9204667
:1026300000F0F8FA002010BD022070470220FAE7EF
:10264000911500204412002010B51D4B1B78DBB201
:10265000042B2FD1836983B3827802F00F031949C9
:1026600081F83C3122F07F0281F83D212C2202FBCF
:10267000031292F90420002A07DB124A2C2101FBE5
:1026800003239B893BB9002415E00A462C2101FB5A
:1026900003239B8BF6E700F0A5FA044600F046FA08
:1026A0000CB1002407E000F0C3F9044618B900F0AB
:1026B0003DFA00E00224204610BD0224FBE700BFE3
:1026C000911500204412002008B5114B1B78DBB295
:1026D000042B1CD18369D3B1837803F00F020D4919
:1026E00081F83C2123F07F0381F83D312C2303FB4B
:1026F00002139B6813F0100F09D10B462C2101FB2C
:102700000232137A13F0020F01D0FFF79DFF08BDCC
:10271000911500204412002010B51A4B1B78DBB233
:10272000042B27D1836943B3027A02F00F031649C1
:1027300081F83C3122F07F0281F83D212C2202FBFE
:102740000312926812F0200F19D02C2202FB031200
:1027500092F90420002A08DB0B4A2C2101FB0323F9
:102760009C8944B900F0B4F905E02C2202FB031364
:102770009C8BF6E70024204610BD0024FBE70024D4
:10278000F9E700BF911500204412002038B52C4B0A
:102790001B78DBB2042B49D18369002B49D0027A24
:1027A00002F00F03274981F83C3122F07F0281F8C3
:1027B0003D211C462C2202FB0312926812F0200FCE
:1027C0003AD02C2202FB031292F90420002A0FDBDC
:1027D0001C4A2C2101FB03239B89B3B94FF0FF3521
:1027E000184B2C2202FB0434A389E3B1284638BDE0
:1027F0002C2202FB03139B8B3BB94FF0FF35114A90
:102800002C2303FB0424A38BEFE700F025FA05B289
:102810000C4A92F83C412C2303FB042393F9043027
:10282000002BDDDAEBE700F053F9DFE74FF0FF357F
:10283000DCE74FF0FF35D9E74FF0FF35D6E700BFB3
:102840009115002044120020154B1B78DBB2042B9D
:1028500024D110B582B0044683690BB902B010BD13
:10286000837B104A03F00F0182F83C1123F07F03B1
:1028700082F83D310C4A6B4692E8030083E803007E
:1028800000220821184601F04FF90022022104F12C
:10289000160001F049F900F049F9DFE7704700BF81
:1028A00091150020441200202CDC0008704770476E
:1028B00070470000484B93F83E3113F0020F00F0D0
:1028C0008A8010B50446454B9A8803789A4260D1B5
:1028D000424B5B78203B032B5BD8DFE803F02A02F6
:1028E000566B3E4B1B78A12B53D13B4A92F83E319D
:1028F0006FF3410382F83E3192F83C21364B2C2194
:1029000001FB0232936813F0100FFBD1137A13F01E
:10291000020FF7D0A06900F0B7F9207F00F082F92C
:10292000607F00F07FF9A07F00F07CF900F0FEF8F6
:102930002FE02A4B1B78212B2BD1274A92F83E31CE
:102940006FF3410382F83E3192F83C21224B2C2157
:1029500001FB02322249936813F0200F03D10B7858
:10296000002BF8D115E000F0A9F9A06100F074F98E
:10297000207700F071F9607700F06EF9A07700F031
:10298000A7F82046FFF792FF03E0144B1B78212B9A
:1029900000D010BD104A92F83E316FF3410382F827
:1029A0003E310E4A9378D27843EA02238382FFF7BE
:1029B0007EFFEEE7094B1B78212BEAD1064A92F8FD
:1029C0003E316FF3410382F83E31044B5988C9B25E
:1029D000FFF76EFFDDE770474412002094150020DA
:1029E00091150020104B1B78EBB110B50F4B93F8ED
:1029F0003D4193F83C211443002283F83C2183F8A5
:102A00003D2193F83E3113F0020F09D1074B04F03A
:102A10000F0283F83C2124F07F0483F83D4110BD70
:102A2000FEF7A2F9F2E7704791150020441200204A
:102A30002DE9F041244B1B689B6B984706466427A1
:102A4000214C2C25DFF8848022E005FB03429268AC
:102A500012F0100F05D105FB0342127A12F0020F9B
:102A600028D198F8002002F0FF0132B3052926D0C2
:102A700005FB03431B7A13F0040F22D123689B6BE1
:102A80009847864203D07B1EDBB28FB11F460646B5
:102A900094F83C3105FB034292F90420002AD4DB70
:102AA00005FB0342926812F0200FDAD0002002E00A
:102AB000042000E00020BDE8F0810220FBE70320B5
:102AC000F9E70120F7E700BF44120020911500202C
:102AD00038B5154A92F83C512C2303FB05231B7A89
:102AE00013F0020F1ED02C2404FB05241368DB6AAC
:102AF000A269616920799847E06000232361A36897
:102B000013F0080F0ED168B9074A238943F0080370
:102B1000238123896FF34513238113689B6AA1697D
:102B20002079984738BD00BF44120020F8B52A4AE2
:102B300092F83C512C2303FB05239B6813F0100FE4
:102B40002ED12C2303FB05231B7A13F0020F27D071
:102B50002C2404FB0524238943F010032381236ADA
:102B6000E362E369A3620023E3611C4E4FF4006754
:102B7000C6F88C70BFF34F8FBFF36F8F13681B6B5A
:102B8000A26AE16A20799847E36A0344E362A36A90
:102B9000181AA062F760124B1B78DBB2012B00D031
:102BA000F8BD207910F00F0FFAD02246936813F089
:102BB000100FFBD1084A2C2303FB05252B8943F07A
:102BC00010032B8113681B6B0022E96A9847044BA2
:102BD00000221A70E4E700BF4412002000E100E088
:102BE000F40E00200E4991F83C312C2202FB031216
:102BF00092F90420002A08DB094A2C2101FB032357
:102C0000D868003818BF012070470A462C2101FB04
:102C10000323D8695B6A98422CBF002001207047CB
:102C20004412002010B40B4B93F83C112C2202FBF1
:102C30000132D369526A9342FDD2064A2C2404FB26
:102C40000122116AC854D3690133D3615DF8044B82
:102C5000704700BF441200200A4991F83C312C22F1
:102C600002FB0312D268002AFDD006492C2000FB8B
:102C7000031319695869405C01311961013ADA603E
:102C8000704700BF4412002010B40B4A92F83C1168
:102C90002C2303FB0123DA695B6A033B9A42FDD2D2
:102CA000054B2C2404FB0133196A8850DA6904327D
:102CB000DA615DF8044B7047441200200A4991F82C
:102CC0003C312C2202FB0312D268032AFDD90649AB
:102CD0002C2000FB0313196958694058043119610D
:102CE000043ADA60704700BF44120020002931D056
:102CF0002DE9F04104464F1EFFB207EB47070630AF
:102D000000EB4707164E4FF02C0802E00634BC4299
:102D10001ED0207800F00F053368DB6962882179C6
:102D20009847C8B9237808FB056213711389618835
:102D300061F38C13138143F003031372207894F929
:102D40000030002BE2DB33689B6A91699847DDE72E
:102D5000012002E0012070470020BDE8F08100BFA3
:102D60004412002010B5044601F088FB074B186898
:102D7000074BA3FB0030800C04FB00F020B10023C4
:102D800000BF01339842FBD110BD00BFC0FF00203F
:102D900083DE1B43024A936803439360704700BF7E
:102DA00074400050024A936823EA0003936070471E
:102DB00074400050024A136903431361704700BF17
:102DC00074400050014B5868704700BF7440005079
:102DD000014BD860704700BF74400050024B186927
:102DE00000F47060704700BF00400050014B186154
:102DF000704700BF004000508000014B18587047DA
:102E00002C4000508000014B195070472C4000505E
:102E1000800000F1A04000F58040D0F8A020012300
:102E20008B401343C0F8A0307047800000F1A040F1
:102E300000F58040D0F8A03001228A4023EA020346
:102E4000C0F8A03070470000C90241EA001141F407
:102E50000801024BC3F88C10704700BF00400050BF
:102E6000034AD2F88C3023F00103C2F88C3070474B
:102E700000400050034AD2F88C3043F00103C2F8FE
:102E80008C30704700400050034BD3F88C0080F02A
:102E9000010000F00100704700400050024BD3F8E1
:102EA0009000C0F3803070470040005008B5FFF735
:102EB000EBFF28B1044BD3F89000C0F3090008BD24
:102EC0006FF00040FBE700BF00400050024BD3F81A
:102ED0009000C0F3C03070470040005010B5FFF7BD
:102EE000D3FF0446FFF7F2FF50B984F00100C0B2EF
:102EF000044AD2F88C3043F00203C2F88C3010BD83
:102F00000220F5E700400050000400F4702040F07B
:102F10000100064BC3F8CC10C3F8C8001A46D2F81B
:102F2000C43013F4005FFAD1704700BF0040005076
:102F3000000400F47020064BC3F8C8001A46D2F80B
:102F4000C43013F4005FFAD1014BD3F8CC007047C2
:102F500000400050024A936823EA000393607047E0
:102F600060410050024A936803439360704700BF7A
:102F700060410050014B5868704700BF60410050ED
:102F8000014B1861704700BF60410050014BD86091
:102F9000704700BF60410050024A536903435361C8
:102FA000704700BF3C410050014B5869704700BF5B
:102FB0003C410050024A136803431360704700BF4E
:102FC0003C410050024A136823EA00031360704733
:102FD0003C410050024A936803439360704700BF2E
:102FE0003C410050024A936823EA00039360704713
:102FF0003C410050024A536903435361704700BF8C
:1030000074400050024A536923EA00035361704739
:1030100074400050030F03EB430320F07040024A5A
:1030200042F82300704700BF10440050030F03EB29
:10303000430320F07040024A42F82300704700BF6B
:1030400014440050030F03EB4303054A52F82330A6
:10305000184030F0704314BF01200020704700BFBB
:103060000C44005008B5054BDB6813F0010F01D08C
:10307000034808BD01F0FEF9FBE700BF1047005010
:1030800000366E0108B5FFF7EDFF0F4B1B6813F01C
:10309000010F07D00C4B9B6803F07F030133B0FB9B
:1030A000F3F008BD084B9A6899689B68C1F3062144
:1030B00001FB0000C2F30362C3F30643013302FBCA
:1030C0000333B0FBF3F0ECE71047005008B501F014
:1030D000D1F9094B1B6913F0010F0CD1064B5A694A
:1030E0005B69C2F3062202FB0000C3F303630133F2
:1030F0005B00B0FBF3F008BD10470050054B1A69A8
:103100001B6A02F0010204490868904003F00103C1
:10311000D840704700460050C0FF002008B5094B5A
:103120009B6913F4803F09D0FFF7ACFF054B9B6907
:1031300003F007030133B0FBF3F008BDFFF7C6FF50
:10314000F4E700BF0046005008B5FFF79BFF044BB3
:10315000DB6903F03F030133B0FBF3F008BD00BFB0
:103160000046005008B50D4B5B6A03F44033B3F5DD
:10317000003F0DD07BB1B3F5803F14BF00204FF46A
:103180000040064B5B6ADBB20133B0FBF3F008BDD5
:10319000FFF778FFF5E70248F3E700BF004600506D
:1031A00000366E0108B5134B9B6A03F00303032B33
:1031B00008D08BB90F4B1B6903F001030E4A10684E
:1031C000984008BDFFF75EFF0A4B9B6AC3F30843B4
:1031D0000133B0FBF3F0F4E7022B01D00020F0E75D
:1031E000FFF774FF034B9B6AC3F308430133B0FB43
:1031F000F3F0E6E700460050C0FF0020034B5B6998
:1032000003F00103024A1068D8407047004600509E
:10321000C0FF0020034AD36823F480330343D36004
:10322000704700BF00460050034A936923F480337F
:1032300003439361704700BF00460050034A536A3E
:1032400023F4403303435362704700BF00460050ED
:10325000034A936A23F0030303439362704700BF5A
:103260000046005038B9084AD36823F4807323F02D
:103270000103D3607047044AD36843F4807343F07A
:103280000103D360704700BF10470050064AD2F8D0
:10329000C43013F0080FFAD1044AD36823F0400376
:1032A0001843D060704700BF0040005000430050FA
:1032B000064AD2F8C43013F0080FFAD1044AD36892
:1032C00023F080031843D060704700BF00400050D7
:1032D00000430050034AD36823F0FF03013803433F
:1032E000D360704700460050034A136A23F001037D
:1032F000013803431362704700460050034A1369C4
:1033000023F0010301380343136170470046005066
:10331000034A536923F001030138034353617047A3
:1033200000460050034A936923F007030138034322
:103330009361704700460050034AD36923F03F036E
:1033400001380343D361704700460050034A536A73
:1033500023F0FF03013803435362704700460050D7
:10336000054A936A013823F0FF7323F4803343EA5C
:1033700000439362704700BF00460050014B586005
:10338000704700BF00460050014B9860704700BF77
:1033900000460050034B1B68184214BF0120002058
:1033A000704700BF00460050064B5B69DBB207EE7A
:1033B000903AF8EE677A9FED047A67EE877A17EE17
:1033C000900A704700420050ED0DBE3B074B5B6911
:1033D000C3F3072307EE903AF8EE677A9FED047A7D
:1033E00067EE877A17EE900A704700BF00420050E0
:1033F000EC51B83C034A536923F4803323F00203B1
:103400005361704710470050034A536943F48033B7
:1034100043F002035361704710470050104B5A6944
:1034200042F001025A615A6942F010025A614A1E82
:10343000411E090641EA022159615A6942F04002DF
:103440005A615A6922F010025A615A6942F4802284
:103450005A611A46136913F0040FFBD0704700BF7E
:1034600010470050014B024A5A6170471047005004
:103470000300010010B50C4A536843F480135360F5
:10348000012803D06420FFF76DFC10BD144653687B
:1034900023F4801353606420FFF764FC636843F4F3
:1034A00000236360EEE700BF10470050024B4FF46B
:1034B00040325A60704700BF00420050024B4FF448
:1034C00040329A60704700BF00420050024B1869BA
:1034D000C0F38000704700BF104700500D4B1B68C1
:1034E00013F0010F07D10B4B01225A601A461368E3
:1034F00013F0010FFBD0084B1B6813F4007F08D0BA
:10350000054B4FF400729A601A46136813F4007F5B
:10351000FBD170470042005000440050044B012290
:103520009A6003F500734FF400725A60704700BF51
:1035300000420050064B1B6813F0010F06D0054BEC
:10354000186880F40070C0F3402070470020704776
:103550000042005000440050054AD2F8C43013F035
:10356000200FFAD1034A536923F0010353617047D6
:103570000040005000430050054AD2F8C43013F018
:10358000200FFAD1034A536943F001035361704796
:103590000040005000430050044AD2F8C43013F0F9
:1035A000020FFAD1024B5860704700BF0040005034
:1035B00000430050044AD2F8C43013F0040FFAD18B
:1035C000024B9860704700BF00400050004300501D
:1035D000054AD2F8C43013F0080FFAD1034BDA6869
:1035E0001043D860704700BF0040005000430050B7
:1035F000054AD2F8C43013F0080FFAD1034AD36851
:1036000023EA0000D06070470040005000430050A3
:10361000054AD2F8C43013F0080FFAD1034AD36830
:1036200043F01003D3607047004000500043005047
:1036300000B1704708B5FFF7EBFF08BD094AD2F8A3
:10364000C43013F0080FFAD128B9074AD36843F4FD
:103650008073D3607047044AD36823F48073D360C7
:10366000704700BF004000500043005010B40A4AA9
:10367000D2F8C43013F0080FFAD1084CE368800088
:103680004FF47022824023EA020301FA00F018434B
:10369000E0605DF8044B704700400050004300506C
:1036A00010B4094AD2F8C43013F0080FFAD1074C0D
:1036B000E3684FF48052824023EA020381400B43C7
:1036C000E3605DF8044B7047004000500043005039
:1036D000094AD2F8C43013F0080FFAD128B9074AC2
:1036E000D36843F48063D3607047044AD36823F4FB
:1036F0008063D360704700BF00400050004300501B
:10370000064AD2F8C43013F0080FFAD1044AD3683D
:1037100023F480631843D060704700BF004000501E
:1037200000430050034B186880F00800C0F3C0004D
:10373000704700BF00430050134AD2F8C43013F062
:10374000800FFAD1114AD36923F03003D361A2F577
:103750004072D2F8C43013F0080FFAD10B4AD36884
:1037600043F00803D360A2F54072D2F8C43013F0DE
:10377000040FFAD1054B08229A60034AD2F8C430EC
:10378000002BFBD1704700BF0040005000430050A9
:10379000054AD2F8C43013F0800FFAD1034AD36936
:1037A00043F03003D36170470040005000430050A5
:1037B000054AD2F8C43013F0800FFAD1034AD36916
:1037C00043F03103D3617047004000500043005084
:1037D000064AD2F8C43013F0800FFAD1044AD369F4
:1037E00023F0310343F02003D361704700400050C1
:1037F00000430050024B986900F00100704700BF81
:103800000043005070B50D4C636823F4803363604F
:103810000B4D6E6800F02EFE0A4BA3FB00231B0D20
:10382000013B26F4702222F0300242EA03436B602F
:10383000636823F40033636070BD00BF104700501D
:10384000004700506BCA5F6B044B186800F460704F
:10385000B0F5607F14BF0020012070471047005072
:10386000024A536843F030035360704700470050EA
:10387000024A536843F00103536070470047005009
:10388000024A536823F00103536070470047005019
:10389000024B186800F00100704700BF004700505D
:1038A000034A536823F4803323F0020353607047C4
:1038B00010470050034A536843F4803343F0020337
:1038C0005360704710470050024A536843F48033F6
:1038D000536070471047005008B5064A9368013896
:1038E00023F4FE0343EA004393603220FFF73AFAE1
:1038F00008BD00BF104700502DE9F04180460C463E
:1039000016461D46069FFFF7ADFC012C10D0374A26
:10391000936823F07F03013F1F439760536843F090
:1039200001035360136813F0010FFBD0BDE8F08171
:10393000B8F1000F4CD04FF0C06405FB04F4B4FBA9
:10394000F6F42A494B6843F001034B604B6843F09F
:1039500010034B608A68013E254B134043EA06631F
:10396000013D43EA0523234AA2FB0402920E013AD9
:1039700043EA02438B604B6843F040034B604B6863
:1039800023F010034B604B6843F480234B600A46DE
:10399000136813F0040FFBD0144A536823F001039B
:1039A0005360136813F0010FFBD1134BA3FB0423E7
:1039B000D80EB7EBD36F13D36408104BA3FB0434BA
:1039C000E00EB7EBD46F0ED33846FFF785FFADE7B7
:1039D00000F050FD0A4CA4FB0034A40CA405ACE795
:1039E000FFF77AFFE8E7FFF777FFEDE710470050B2
:1039F000FF8080F0ABAAAAAA89888888B7600BB636
:103A000083DE1B4310B582B004460020FFF702FCA2
:103A1000FFF764FDE37923BB607AFFF749FC204A96
:103A2000D2F8C430002BFBD1207AFFF723FD207C95
:103A3000FFF750FC607CFFF761FCA07CFFF754FCB3
:103A4000E07CFFF765FCA37993B9E378BBB9FFF796
:103A500031FFE368B3F5803F1CD000F00FFD02B0EA
:103A600010BDFFF769FEFFF75DFE0028FBD0D3E72E
:103A7000FFF7C8FEFFF7E8FE0028FBD0E5E7FFF7F9
:103A80000FFFA378009323786278E178A088FFF78E
:103A900033FFDEE74FF48030FFF7BCFBDDE700BF0C
:103AA00000400050024B1868C0F38000704700BF10
:103AB0001047005010F0010310D1013320FA03F237
:103AC00012F0010F03D1202BF7D101207047202BDA
:103AD00006D0044A42F82310002070470023F8E77C
:103AE000012070479C15002010B50D4B5A6812F04C
:103AF000010F09D1012422FA04F313F0010F04D1BC
:103B00000134202CF7D10AE00024064B53F824306E
:103B100003B19847012303FA04F4014BDC6010BDA4
:103B2000744000509C1500202DE9F84F80460D464A
:103B3000284B93F83CA1914642B11788CD1BADB2FA
:103B40000026244B2C2404FB0A340BE00027F7E763
:103B5000FEF7ECFFB9F1000F27D1FEF769FF03462E
:103B6000002834D12DB3A36813F0100FFAD1FFF75A
:103B700039F80028ECD0E369666AF61AAE4228BF2D
:103B80002E461FFA86FB206A324608EB07011844CE
:103B900000F09CF9E3691E44E6615F44BFB2A5EB07
:103BA0000B0B2E461FFA8BF5DCE7A9F800700523F6
:103BB0000DE0084B2C2202FB0A3ABAF80830C3F396
:103BC0008613B34202BF044B01221A700023184629
:103BD000BDE8F88F44120020F40E00206AB110B442
:103BE0004B1E10441144013913F8012F00F8012D28
:103BF0008B42F9D15DF8044B704770472DE9F047CF
:103C000081460D46204B93F83C4192463AB11788C5
:103C1000CD1BADB21C4B2C2202FB04340AE0002762
:103C2000F8E7FEF783FFBAF1000F24D1FEF700FF9B
:103C3000034628BB1DB3A36813F0100FFAD1FEF79B
:103C4000D1FF0028EDD0E369666AF61AAE4228BFBC
:103C50002E461FFA86F8206A324609EB07011844FF
:103C6000FFF7BCFFE3691E44E6614744BFB2A5EB22
:103C70000805ADB2DEE7AAF80070052300E00023D6
:103C80001846BDE8F08700BF441200202DE9F04738
:103C900081460D46214B93F83C4192463AB1178834
:103CA000CD1BADB21D4B2C2202FB04340AE00027D1
:103CB000F8E7FEF70DFFBAF1000F26D1FEF7B8FEC8
:103CC000034638BB2DB3A36813F0080FFAD1FEF7F3
:103CD00089FF0028EDD0E668AE4228BF2E461FFAC5
:103CE00086F8616923693246194409EB070000F040
:103CF000EDF8E3689B1BE36023691E44266147449B
:103D0000BFB2A5EB0805ADB2DCE7AAF80070052349
:103D100000E000231846BDE8F08700BF44120020F1
:103D20002DE9F04781460D46214B93F83C419246E0
:103D30003AB11788CD1BADB21D4B2C2202FB0434C7
:103D40000AE00027F8E7FEF7C3FEBAF1000F26D11C
:103D5000FEF76EFE034638BB2DB3A36813F0100FB9
:103D6000FAD1FEF73FFF0028EDD0E668AE4228BF4B
:103D70002E461FFA86F8616923693246194409EB19
:103D80000700FFF72BFFE3689B1BE36023691E44DA
:103D900026614744BFB2A5EB0805ADB2DCE7AAF83F
:103DA0000070052300E000231846BDE8F08700BF3F
:103DB00044120020F8B507460C460D4DACB1AB6877
:103DC00013F0100FFAD16E6AA64294BFB6B226461F
:103DD00032463946286A00F079F8EB693344EB61E2
:103DE000A41BA4B2FEF7A2FEE8E70020F8BD00BFC6
:103DF0004412002008B5FFF7DDFF08BDF8B50746FF
:103E00000C460C4DA4B1AB6813F0200FFAD0EE684D
:103E1000A64228BF264632466969384600F056F861
:103E2000EB689B1BEB60A41BA4B2FEF751FEE9E715
:103E30000020F8BD4412002008B5FFF7DFFF08BDE1
:103E40002DE9F8430546204B93F83C41884639B1AB
:103E50000F88C51BADB21C4B2C2202FB04340AE0B8
:103E60000027F8E7FEF762FEB8F1000F23D1FEF756
:103E7000DFFD034620BB15B3A36813F0100FFAD182
:103E8000FEF7B0FE0028EDD0E369666AF61AAE428E
:103E900028BF2E461FFA86F9206A324600211844B0
:103EA00006F074FEE3691E44E6614F44BFB2A5EB21
:103EB0000905ADB2DFE7A8F80070052300E0002394
:103EC0001846BDE8F88300BF44120020130911D042
:103ED00051F804CB40F804CB51F804CB40F804CBA4
:103EE00051F804CB40F804CB51F804CB40F804CB94
:103EF000013BEDD112F00F0305D011F801CB00F812
:103F000001CB013BF9D1704710B401F0FC03184418
:103F1000036901F00301C900F8248C4023EA04037B
:103F20000361036902FA01F1194301615DF8044B71
:103F3000704710B4436F490003248C4023EA040304
:103F40004367436F8A401A4342675DF8044B7047EA
:103F5000F0B401F0FC0303441D6901F00304E40024
:103F6000F826A64025EA06051D61456F4F00032689
:103F7000BE4025EA06054567154DA84219D005F54E
:103F80008075A84215D055688D404560CD0800EB7E
:103F90008500056C01F00701890007268E4025EA9F
:103FA00006050564066C157A05FA01F131430164D2
:103FB00006E0056E012606FA01F125EA0101016617
:103FC00019691278A2400A431A61F0BC704700BF19
:103FD000008E024810B4CB0800EB8300036C01F0A4
:103FE0000701890007248C4023EA04030364036C5F
:103FF00002FA01F1194301645DF8044B70470000B7
:1040000010B504461020FFF7B9F90E4B9C4209D0B9
:104010000D4B9C420AD00D4B9C420BD00C4B9C424A
:104020000CD010BD0420FFF701F8FAE70820FEF7D6
:10403000FDFFF6E71020FEF7F9FFF2E70548FEF76F
:10404000F5FFEEE700C000400000014000400140E5
:10405000004000480100001008B50E4B984209D0FE
:104060000D4B98420AD00D4B98420BD00C4B984206
:104070000CD008BD0420FEF7CDFFFAE70820FEF7BC
:10408000C9FFF6E71020FEF7C5FFF2E70548FEF787
:10409000C1FFEEE700C000400000014000400140C9
:1040A000004000480100001038B504460D46FFF7F7
:1040B000A7FFE36843F48073E360236823F440437D
:1040C00043EA8533236038BD036823F0300343EAB5
:1040D000011303607047036823EA114389B219434F
:1040E000016070470B6843614B79C3F340131B05B4
:1040F00043600B7903F00F0343624B7903F00F0326
:1041000003624B79C3F3001383610B791B09C3620C
:1041100070470B6843614B7903F001031B05436053
:104120000B7903F00F0343620B791B09C3627047DD
:10413000436823F00303194341604369012A0CBF1C
:1041400043F4806323F480634361704710B4446890
:1041500024F00C0444EA81044460436923F440736E
:1041600043EA022343615DF8044B7047436823F43C
:10417000405343EA01334360704730B444694568B3
:1041800025F4402545EA81454560012A0CBF44F0ED
:10419000807424F0807423B144F40004446130BC82
:1041A000704724F40004F9E7436823F4404343EAEA
:1041B000813343607047436823F4407343EA01232B
:1041C00043607047436823F0300343EA01134360C0
:1041D0007047436823F0C00343EA8113436070478C
:1041E000436823F4406343EA812343607047436894
:1041F00043F4803343607047436843F400334360C3
:1042000043694AB143F4001301290CBF43F480030E
:1042100023F480034361704723F40013F4E710B4E0
:10422000036823F440234C7843EA844323F4401387
:10423000547843EA045323F400038C7843EAC453CC
:1042400023F08073947843EA046323F0C053CC785E
:1042500043EAC46323F0C043D47843EA447323F0B1
:10426000F003097843EA011323F47063127843EAF8
:10427000022303605DF8044B7047F0B44C1EE4B2B7
:10428000D0F800C06500EDB205F11003DFB20326DF
:1042900006FA07F32CEA030C5378BB4043EA0C03FD
:1042A0001531CFB20121B94023EA01039178B94019
:1042B00019431935EDB206FA05F321EA0301D37863
:1042C000AB400B43A100C9B20F248C4023EA040386
:1042D000127802FA01F10B430360F0BC704710B48E
:1042E000036801398900C9B20F248C4023EA040312
:1042F0008A401A4302605DF8044B704721B9436954
:1043000023F0020343617047436943F002034361B2
:10431000704721B9436923F0010343617047436942
:1043200043F00103436170471C3100EB810040689A
:10433000704730B4436913F0100F1CD101290BBF33
:1043400004250225022300231C4603F11C0100EB77
:104350008101496811F4801F05D10133D9B28D4222
:10436000F2D8012005E01C3400EB840043681360A0
:10437000002030BC704704250023E5E7006DC0F342
:104380000152914218BF4FF0FF30704710B444699A
:1043900024F4C04409B144F400540AB144F4804404
:1043A000446103625DF8044B7047836A23F47063D1
:1043B00043EA012383624162704710B4D0F8A83009
:1043C000092911D8DFE801F01414050510101010A8
:1043D000080C0C2402210DE04FF44074082109E080
:1043E0004FF440640A2105E04FF440540C2101E0F1
:1043F0000324002123EA04038A401A43C0F8A820BA
:104400005DF8044B7047836923F001031943816110
:10441000704782B000230193019B984206D900BFE8
:10442000019B01330193019B8342F8D302B0704793
:1044300072B60D4B0D4A9A60BFF34F8F62B6D3F838
:10444000882042F47002C3F888205A6922F00802DA
:104450005A61074941F214028B5823F00F0343F0CD
:1044600003038B50704700BF00ED00E00000000820
:104470000010005800487047001BB70010B51E4BD5
:10448000DB6813F4803F27D01C4BDB6813F0010F6F
:1044900017D01B48194B1B6813F0040F14D0174A90
:1044A000946891689268C4F30364C2F30642531C93
:1044B00004FB0333B0FBF3F3C1F3062000FB03332B
:1044C0000BE0FFF7D7FFE5E70C4B9B6803F07F039A
:1044D0000133B0FBF3F300E0094B074AD068C0B2E8
:1044E0000130B3FBF0F3126902F001020132B3FBB9
:1044F000F2F3044A136010BD00460050104700500C
:1045000000366E01C0FF002010B55C4B1B6813F035
:10451000010F08D1594A536843F0010353601368EF
:1045200013F0010FFBD0564B1B6813F4007F78D1BA
:10453000544C636843F40023636040F6C410FFF7F3
:1045400068FF636823F4803323F0020363604E4BFB
:104550005B6813F0300F6ED14A4B5A6842F001028B
:104560005A605A6842F010025A60484A9A605A6883
:1045700042F040025A605A6822F010025A605A68AB
:1045800042F480225A601A46136813F0040FFBD0DD
:104590003C4A536823F001035360136813F0010F82
:1045A000FBD13B4BDA6842F48032DA6000225A6178
:1045B0001A611A625A62DA6103229A6103F58873FA
:1045C0005A6822F040025A60324A9A6040F6B83087
:1045D000FFF71FFF2B4A136813F0040FFBD0294B82
:1045E0002D4A9A6041F29410FFF713FF254A136891
:1045F00013F0040FFBD0234B284A9A6041F27070ED
:10460000FFF707FF1F4A136813F0040FFBD0244B7A
:104610000522DA6003F5946300225A60FFF72EFF4B
:1046200010BD174A936843F40073936041F64C50F1
:10463000FFF7EFFE7CE7103C636823F4702323F060
:1046400030036360FFF716FF6268164BA3FB00138D
:104650001B0D013B42EA034363600A4BDA6822F018
:104660000102DA605A6822F400325A601A4613686E
:1046700003F46073B3F5607FF9D16DE70042005039
:10468000004400501047005000470050004F1301F5
:1046900000460050004F0701004F0401004F030186
:1046A000604100506BCA5F6B10B54FF00053044C73
:1046B0000FCB84E80F00FFF7BBFEFBF755FE10BDE4
:1046C000C4FF002008B503460C4A12685AB10B4AD1
:1046D0001068033323F003030344094A934206D2CC
:1046E000064A136008BD054A06491160EFE705F068
:1046F0003BFE0C2303604FF0FF30F3E7F80E002081
:10470000C0FF002020160020704710207047402076
:1047100070472020704710207047402070472020AD
:104720007047000001487844704700BF0A950000B8
:104730004FF4C070704730B430BC00F009B800F0DE
:1047400035B800F070B800F071B8202100F0A6BABA
:104750000B46F0B45D1E3F2D1146079C069A07D804
:10476000402C05D8E4B20694DBB2F0BC01F036BBB5
:104770004FF0FF30F0BC7047F0B50B4603F1FF3C43
:104780001146BCF13F0F07AA92E834400BD8402CE9
:1047900009D8E4B2CDF824E008950794DBB2BDE86F
:1047A000F04001F056BB4FF0FF30F0BD38B50C467D
:1047B000591E3F29054611D8402A0FD8D9B204B155
:1047C0003AB9284601F0B8F8003018BF012040423D
:1047D00038BDD3B2224601F09FF9F5E74FF0FF3024
:1047E00038BDF7B50C46591E3F290746089D099E5E
:1047F00016D8402A14D8D9B204B152B933462A4641
:10480000384601F0CFF8003018BF0120404203B015
:10481000F0BDD3B28DE86000224601F0D4F9F2E792
:104820004FF0FF30F3E701F011B90000FF2A08B59F
:1048300008D9074B074A08487B447A4466217844E4
:1048400005F036FDD2B2BDE8084001F035BA00BF30
:1048500021940000FE9300002F94000001F03CBB67
:104860002DE9F04FA3B006AF0446D7F8A080396019
:104870001546C4B00023D7F8A420414607F1100024
:104880000DF1270600F0FAFDAC4226F00F0607D91D
:10489000D7E926010023621B8B4208BF824209D35D
:1048A000AC420ED2D7E9260100232A1B8B4208BF57
:1048B000824206D22946D7F89820204606F0FEF814
:1048C00025462022002107F1300006F05FF9D7E9E4
:1048D0002623002B08BF212AC7E9022303D3202265
:1048E0000023C7E90223D7F808B007F14F090BF1FD
:1048F000FF336A1E2B4449469A4254D108F11003F3
:1049000007F1100A7B608DE80804D7E9022307F15C
:104910003008203243F100034146404600F034F9AC
:104920004146304601F000FB0BF11F03621E434479
:1049300099453DD14021404600F09BFAD7E902233A
:10494000D7E926018B4208BF824214D201220023FC
:10495000CDE902237B68009302460B46D7E90201AA
:10496000121A63EB0103CDF810A005EB0B0104EB69
:104970000B0000F0FFF85046202100F07AFAD7E94A
:1049800026232146304601F0D7FA3968304601F037
:10499000DFFA30464FF4807100F06BFA0020743774
:1049A000BD46BDE8F08F12F8010F01F8010FA3E733
:1049B00019F8011F02F8011FBAE730B500256FF0A2
:1049C00010049D4208BF944285B001D200F0E8F97E
:1049D000099C0394089C0294CDE900230A460146F1
:1049E0001030FFF73DFF05B030BD2DE9F04FA1B00D
:1049F0000DF120082C9F91460C46002339462D9A34
:104A000010AE05461037404600F038FD2022002346
:104A10008DE88001304600F0A3F848460096DDE9B5
:104A20002A23214601F074FA814648B120214046EC
:104A300000F01FFA4FF0FF39484621B0BDE8F08F73
:104A4000002DF9D0AC4209D3DDE92A010023621B15
:104A50008B4208BF824209D3AC420DD8DDE92A015E
:104A600000232A1B8B4208BF824205D221462A9A84
:104A7000284606F023F82C46DDE92A23002B08BF40
:104A8000212ACDE9062303D320220023CDE90623E2
:104A9000DDF818B00DF15F080BF1FF33621E2344FF
:104AA00041469A4234D1DDE9062310AE20320DF1A1
:104AB000200A43F10003314630468DE8800400F0BF
:104AC00063F80BF11F026B1E1644B04525D1DDE9DA
:104AD0000623DDE92A018B4208BF824213D201225C
:104AE0000023CDE9022302460B46DDE90601121A36
:104AF00063EB0103CDF810A0009704EB0B0105EB6D
:104B00000B0000F037F82021504600F0B2F993E78F
:104B100012F8010F01F8010FC3E718F8012F03F88D
:104B2000012FD2E7002B08BF102A1FB50ED3103A71
:104B3000079C039443F1FF33069C0294CDE90023C4
:104B40000A461031FFF751FF04B010BD4FF0FF309F
:104B5000FAE720207047082070474FF0FF30704779
:104B600010B403495DF8044B7944096809680847A3
:104B7000D0C2FF17F0B4034C7C4424686468A44698
:104B8000F0BC6047C0C2FF17F0B5084C87B07C444A
:104B90000026002724680D9D0495CDE902670C9D31
:104BA00000956468A04707B0F0BD00BFAAC2FF1718
:104BB000202100F073B80000044B054A7B4400201C
:104BC0009A58044B7B441A60704700BFDCC2FF1741
:104BD0000000000074C2FF17024B7B4418600020E5
:104BE000704700BF22C3FF1710B500F00BF8044B4D
:104BF0007B441B689B6813B1BDE81040184710BD8B
:104C00000CC3FF17054B064A7B447A44196821B947
:104C1000044952581A60FFF7E7BF7047F4C2FF1704
:104C20008EC2FF170C00000010B5FFF7EBFF034B1F
:104C30007B44BDE810401B681B681847CCC2FF17B7
:104C400010B5FFF7DFFF034B7B44BDE810401B6846
:104C50005B681847B4C2FF1770B50446FFF7D2FF70
:104C60000D4B7B441B68DB681BB12046BDE87040E0
:104C70001847012C0DD96342B3FBF4F504FB15353D
:104C8000FFF7DEFF8542FBD8B0FBF4F304FB130013
:104C900070BD184670BD00BF9AC2FF1770B50C46B4
:104CA0000546FFF7AFFF44B1044B7B4421461B6828
:104CB00028461B69BDE87040184770BD52C2FF17F7
:104CC00007B5054B01927B4400930A46002301F08F
:104CD00023FC03B05DF804FBDC8F0000202070474C
:104CE000044B7B441B6813B15B6903B11847002078
:104CF000704700BF1AC2FF17012B08BF002A08B572
:104D000009D3074A074B08487A447B440C32CC212C
:104D1000784405F0CDFA1146BDE80840FFF7BEBF64
:104D20009A8F0000B08F0000BE8F0000064B01225A
:104D30007B4453E8000F43E800210029F9D1BFF379
:104D40005B8F0028F5D17047D0C1FF1770B5FFF712
:104D5000EDFF0446A8B90C4D7D4401266B682BB1CC
:104D6000BFF35B8F34462860204670BD00F03AF8F0
:104D7000FFF73AFF00F000F96E60BFF35B8F2C6025
:104D8000F2E74FF0FF34EFE7A8C1FF17034BBFF383
:104D90005B8F7B4400201860704700BF6EC1FF1717
:104DA00008B5FFF7C3FF38B9044A7A449368BFF3E4
:104DB0005B8F106003B1984705F072FA56C1FF1778
:104DC00010B50446FFF7B2FF30B9054B7B449C6039
:104DD000BFF35B8F186010BD4FF0FF3010BD00BFF8
:104DE00034C1FF17034B7B440020012258601A6036
:104DF000704700BF26C1FF17014B7B4458687047BE
:104E000012C1FF17014B7B449868704706C1FF171A
:104E1000014B7B44D8687047FAC0FF17014B7B44B5
:104E200018697047EEC0FF17014B7B445869704703
:104E3000E2C0FF17014B7B4498697047D6C0FF174B
:104E4000014B7B44D8697047CAC0FF17014B7B44B4
:104E5000186A7047BEC0FF17014B7B44586A704701
:104E6000B2C0FF17014B7B44986A7047A6C0FF177A
:104E7000704705F07FBA7047F7B5002406460F4625
:104E800015468DF80740FFF7F6FF2346AB4206D1E3
:104E90009DF807000138C00F013803B0F0BDF15C88
:104EA000F85C9DF8072041400A438DF80720013344
:104EB000ECE77047F7B5002316468DF80630054637
:104EC0000C4601238DF80730FFF7F3FFAA19A1194B
:104ED000AA420AD19DF806009DF806209DF80730E9
:104EE00010441844013803B0F0BD12F8013D11F828
:104EF000014D9DF807009DF80660E71A00EA27209B
:104F000030438DF806009DF807006340013B00EA3E
:104F1000E3738DF80730DBE782B000238DF80730AC
:104F20000144884205D19DF807000138C00F02B046
:104F300070479DF8072010F8013B13438DF80730A8
:104F4000EFE701440123884200D1704702781344FF
:104F500000F8013B1B0AF6E730B501390244002393
:104F6000904200D130BD047811F8015F2C442344F5
:104F700000F8013B1B0AF3E708B503481021784409
:104F8000FFF78CFE002008BDBABFFF1708B505F07B
:104F9000EBF9582303604FF0FF3008BD08B505F06A
:104FA000E9F905F0E1F9582303604FF0FF3008BD3F
:104FB00038B50546002808BF012005F023FA04464D
:104FC00018B12A46DB2105F0E1FD204638BD08B5C1
:104FD00028B14FF0FF33B3FBF0F38B4204D94843C1
:104FE000BDE80840FFF7E4BF05F0BEF90C230360FD
:104FF000002008BD05F00EBA08B505F0B5F9582334
:1050000003604FF0FF3008BD08B505F0ADF9582337
:1050100003604FF0FF3008BD08B505F0A5F958232F
:1050200003604FF0FF3008BD73B593B35C1E23429D
:105030006FEA02061BBFB2FBF3F503FB15253440F4
:10504000641BB44201D3FFF7ABFE069D2244AA4283
:105050001FD208B1551C056000258DF807500A4481
:1050600084EA05009DF8071016780138C0F3072080
:10507000314020F07F06314302F801199DF80710F6
:1050800001350843AB428DF80700E9D1002002B09A
:1050900070BD4FF0FF30FAE7F7B59A424FF00005C8
:1050A000019525D323B311442E46AE4611F801CD08
:1050B000019F8CF08004013F013C3C400EF1FF3722
:1050C0003C40C4F300244CEA0E0E6742DDF804C0F5
:1050D0002F40013547EA0C07AB42019746EA040628
:1050E000E4D1019BDB431A440260701E03B0F0BDA3
:1050F0004FF0FF30FAE7000001487844704700BFE6
:10510000F88B000010B5084C7C442068431C02D189
:105110004FF0FF3010BD05F001FF0028F8D14FF02F
:10512000FF332360606010BD74B3FF17F0B5244BEC
:105130007B4491B05B68002B40D105F015F9214DFF
:1051400006687D4401AF0021286805F0FFFE431C7E
:1051500004461FD0394605F0F1FEB0B9029B03F4B6
:105160007043B3F5005F10D10121204605F0DEFE4B
:10517000022140F00102204605F0D8FE124D7D4488
:105180002C60013415D1FFF70BFE204605F0C6FE5A
:10519000043504E005F0E8F80368042BF8D12B6827
:1051A000002BD0D105F0E0F8052303604FF0FF3469
:1051B000E4E705F0D9F8012306606B6011B0F0BD9B
:1051C0004CB3FF17FABCFF17FEB2FF172DE9F843E7
:1051D000224B7B4480465B680E460BB9FFF7A6FF67
:1051E0001F4B7B44D3F80090B9F1FF3F01D1FFF78B
:1051F000D7FD46B91B4B1C4A1C487B447A4470219E
:10520000784405F055F8144B9E4216D8454637466B
:105210003A462946484605F0ADFE041E15DA05F06B
:10522000A3F80368042BF3D005F09EF803680B2B5A
:10523000EED0A642DBD1BDE8F8830D4B0D4A0E48F7
:105240007B447A4471217844DBE702D03F1B25443C
:10525000DED1A5EB0804ECE7FEFFFF7FAAB2FF1743
:105260009AB2FF17028B0000EC8A00000F8B00003F
:10527000FD8A0000A68A0000C98A000007B5042143
:105280000DEB0100FFF7A2FF019803B05DF804FBEE
:105290002DE9F04F1446A1B01D4654EA050382469D
:1052A00089462C9A2A992D9F2E9843D000230DF1E0
:1052B0002008C65C03F808600133202BF9D10023D5
:1052C00004AEC85C98550133082BFAD1F25401336F
:1052D000120A102B42EA07624FEA1727F6D1CDE9EE
:1052E000004510AF009BE31A0AEB030B4B440393FA
:1052F000DDE90023002B08BF402A1FD2A20942EAA1
:1053000085629301A90950429A4499446FF03F0382
:1053100003FB0101A2FB03230B44A4185D4154EAE3
:1053200005032DD140213846FFF7A3FD202140463B
:10533000FFF79FFD002021B0BDE8F08F002342461B
:105340003146384600F098FA0023039AF95CD25CA3
:105350004A400BF803200133402BF6D108230122E9
:10536000F15C0A44F2540133102B4FEA1222F7D1B8
:10537000DDE90023403A43F1FF33CDE90023B1E7F3
:10538000002342463146384600F076FA0023A34215
:10539000C8D219F80320F95C4A400AF80320013307
:1053A000F5E72DE9F04714469CB01D4654EA050385
:1053B0008246249925983AD0002304AFC25CDA557E
:1053C0000133202BFAD100236E46CA5C9A55013373
:1053D000082BFAD10022F2540133102BFBD1A04646
:1053E000A946B9F1000FA4EB080008BFB8F1400FBF
:1053F000504420D2A20942EA8562A9096FF03F0316
:10540000504203FB01010AEB821AA2FB03230B4467
:10541000A4185D4154EA05030DF130081FD1402165
:105420004046FFF726FD20213846FFF722FD0020E9
:105430001CB0BDE8F08700233A46314600F01CFA64
:1054400008230122F15C0A44F2540133102B4FEA85
:105450001222F7D1B8F1400849F1FF39C1E7002322
:105460003A463146404600F007FA0023A342D6D21E
:1054700018F803200AF803200133F7E72DE9F04F6D
:105480008BB000906BB3DC689D685E681F68136921
:105490009068029305904B685068D2F81CA0D2F82F
:1054A0001890D2F814C0D1F80C80D1F808E001931C
:1054B00003900B68D16812680B2008900898013897
:1054C000089013D1009A1361019B17605660956094
:1054D000D4605361C2F818E0C2F81C800BB0BDE87C
:1054E000F08F4C4C4C4D4D4E4D4FD0E707EB0C0B15
:1054F00081EA7B6B07EB0B018EEAF151069159446F
:105500008CEAF141099109980699014487EAB1377B
:10551000911988EA71610491711889EAF151079132
:1055200007980499014482EAF1420146114486EA4F
:10553000B13659198AEA716A0399019805EB0A0E86
:1055400081EAFE5E0AEB0E0183EAF1430EEB0301F2
:1055500085EAB135029901EB0408059981EA78687A
:1055600004EB080180EAF151029808EB010C80EA93
:10557000FC4C01EB0C0984EAB93407EB080982EA18
:10558000796207EB02098EEAF95002EB000E0390F4
:1055900088EAFE400590039886460598864487EA87
:1055A000BE370BEB060E83EA7E6306EB030E81EA41
:1055B000FE510191019859188BEAF14100EB010E5F
:1055C000049886EABE3600EB050E8CEA7E6005EB99
:1055D000000E0290069880EAFE5E029800EB0E082C
:1055E000049880EAF8480EEB080C099885EABC3567
:1055F0000AEB040C80EA7C6C079804EB0C0980EA47
:10560000F9590CEB090B8AEAFB4A09EB0A0B84EA0D
:10561000BB3453E77465206B322D62796E6420339E
:10562000657870612DE9F04F9BB0002B7AD0DC6873
:105630000A949C6809945C681B6808940793136833
:105640000E9353680F9393681093D3681193136963
:1056500012935369139393691493D36915930B6849
:1056600016934B6817938B681893CB681993149B08
:105670000393099B0A9DDDF85480DDF84CE0129CF1
:10568000029317AB93E8080A0193109B04930F9BB6
:105690000093DDF858A0089F119A0E9BDDF81CC0FE
:1056A00000210B910B99249EB14248DB0799109E73
:1056B000614401600E990B4443600F99009B0B44B9
:1056C0008360049B3344C360119B1A44089B0261AE
:1056D0003B444361169B179A9A44019BC0F818A05B
:1056E0001344C361189B029A9944199BC0F82090F7
:1056F0009B44099BC0F824B013448362129B039A15
:105700002344C362139B9E44149BC0F830E01A44A8
:105710004263159B434483630A9B2B44C3631BB0C2
:10572000BDE8F08F514B0A9303F1646303F5E33353
:1057300003F5DF7309934E4B08934E4B7EE70CEB5A
:105740000E0182EA71620CEB020189EAF1510C91BF
:1057500051188EEAF1410D910D9E0C9931448CEA5D
:10576000B13CD919039E8BEA71610591791886EADB
:10577000F1510391039E059901EB060B83EAFB4B64
:1057800033465B4487EAB337029B534488EA73632A
:1057900006930699029B03EB0108009B83EAF858E5
:1057A0000B4643448AEAF34A029B08EB0A0683EA63
:1057B000B636049B611983EA7161019B05EB010E0A
:1057C00083EAFE5E01EB0E090CEB010384EAF94962
:1057D0008BEA73630EEB09040CEB030B85EAB4351B
:1057E00088EAFB5403EB040881EAF8410491009431
:1057F0002146049C21448CEAB13CD1198AEA716AA1
:1058000007EB0A018EEAF1510191514482EAF1421B
:105810000199114487EAB1370599314489EA7164E5
:105820000C9906EB040981EAF959059904EB090B77
:1058300081EAFB4B09EB0B0186EAB1310291069933
:1058400001EB050E0D9981EA7E6E039905EB0E06BC
:1058500081EAF651069E0391714486EAF148039964
:10586000414485EAB1350B9902311AE77465206B22
:105870006E6420336578706113B514240094FFF7CB
:10588000D1FE002002B010BD4020704710207047AC
:10589000202070471020704713B50C240094FFF7A8
:1058A000C1FE002002B010BD40207047102070479C
:1058B000202070471020704713B508240094FFF78C
:1058C000B1FE002002B010BD40207047102070478C
:1058D0002020704710207047164B2DE9F7437B447A
:1058E000A0F108060C46083B00F138023746F3E900
:1058F0000289E7E902899742F9D140F22512002195
:10590000403005F043F92346EE4618685968724660
:1059100003C2D6E90245DDE9000160406940E6E9DD
:105920000201BE4203F10803EFD1002003B0BDE83D
:10593000F08300BF8E84000030B54B1E3F2B93B028
:10594000054601D9FFF72CFA01238DF80A308DF8AE
:105950000B3000220023CDE900238DF808109DE8CC
:105960000300002404AB83E803000E2221460DF15E
:105970001A008DF8094003948DF818408DF81940ED
:1059800005F004F9214610220AA805F0FFF81022BC
:1059900021460EA805F0FAF802A92846FFF79CFF59
:1059A00013B030BDF0B51C464B1E3F2B93B00546DF
:1059B000164601D9FFF7F4F98DF8081000200021F0
:1059C000CDE900019DE80300012200238DF80A20A3
:1059D0008DF80B2004AA82E803000E2219460DF16F
:1059E0001A008DF8093003938DF818308DF81930AE
:1059F00005F0CCF80AA8FEB13246034606F11007BE
:105A0000106851681E4603C60832BA423346F7D1C1
:105A10000EA8B4B12346024604F11006186859686E
:105A2000144603C40833B3422246F7D102A92846DC
:105A3000FFF752FF13B0F0BD1022314605F0A6F873
:105A4000E6E71022214605F0A1F8EFE72DE9F74F30
:105A5000DFF8C0A004460D4616461F4600F1600858
:105A6000FA4400F1E00B56EA070303D1002003B02B
:105A7000BDE8F08FD4F860010023C0F58079BB4207
:105A80004A4608BFB145CDE9002335D229464A46EA
:105A9000404404F079FFD4F860314B44C4F86031DD
:105AA000D4E91023803243F10003002B08BF802A81
:105AB000C4E91023D4E9122334BF01210021521874
:105AC00043F10003C4E912234146DAF800302046CE
:105AD000984780225946404604F056FFD4F860317A
